:020000040000fa
:080000000002040000000000f2
:020000040000fa
:04000800fa060000f4
:020000040000fa
:04000c00500300009d
:020000040000fa
:040010009203000057
:020000040000fa
:040014007003000075
:020000040000fa
:04001800b20300002f
:020000040000fa
:04001c00fa060000e0
:020000040000fa
:04002000fa060000dc
:020000040000fa
:04002400fa060000d8
:020000040000fa
:04002800fa060000d4
:020000040000fa
:04002c00fa060000d0
:020000040000fa
:04003000fa060000cc
:020000040000fa
:04003400fa060000c8
:020000040000fa
:04003800fa060000c4
:020000040000fa
:04003c00fa060000c0
:020000040000fa
:04004000fa060000bc
:020000040000fa
:04004400fa060000b8
:020000040000fa
:04004800fa060000b4
:020000040000fa
:04004c00fa060000b0
:020000040000fa
:04005000fa060000ac
:020000040000fa
:040054007e06000024
:020000040000fa
:04005800220600007c
:020000040000fa
:04005c00fa060000a0
:020000040000fa
:04006000fa0600009c
:020000040000fa
:04006400fa06000098
:020000040000fa
:04006800fa06000094
:020000040000fa
:04006c00d2030000bb
:020000040000fa
:04007000fa0600008c
:020000040000fa
:04007400fa06000088
:020000040000fa
:04007800fa06000084
:020000040000fa
:04007c00fa06000080
:020000040000fa
:04008000fa0600007c
:020000040000fa
:04008400fa06000078
:020000040000fa
:04008800fa06000074
:020000040000fa
:04008c00fa06000070
:020000040000fa
:04009000fa0600006c
:020000040000fa
:04009400fa06000068
:020000040000fa
:04009800fa06000064
:020000040000fa
:04009c00fa06000060
:020000040000fa
:0400a000fa0600005c
:020000040000fa
:0400a400fa06000058
:020000040000fa
:0400a800fa06000054
:020000040000fa
:0400ac00fa06000050
:020000040000fa
:0400b000fa0600004c
:020000040000fa
:0400b400fa06000048
:020000040000fa
:0400b800fa06000044
:020000040000fa
:0400bc00fa06000040
:020000040000fa
:0400c000fa0600003c
:020000040000fa
:0400c400fa06000038
:020000040000fa
:0400c800fa06000034
:020000040000fa
:0400cc00fa06000030
:020000040000fa
:0400d000fa0600002c
:020000040000fa
:0400d400fa06000028
:020000040000fa
:0400d800fa06000024
:020000040000fa
:0400dc00fa06000020
:020000040000fa
:0400e000fa0600001c
:020000040000fa
:0400e400fa06000018
:020000040000fa
:0400e800fa06000014
:020000040000fa
:0400ec00fa06000010
:020000040000fa
:0400f000fa0600000c
:020000040000fa
:0400f400fa06000008
:020000040000fa
:0400f800fa06000004
:020000040000fa
:0400fc00fa06000000
:020000040000fa
:04010000fa060000fb
:020000040000fa
:04010400fa060000f7
:020000040000fa
:04010800fa060000f3
:020000040000fa
:04010c00fa060000ef
:020000040000fa
:04011000fa060000eb
:020000040000fa
:04011400fa060000e7
:020000040000fa
:04011800fa060000e3
:020000040000fa
:04011c00fa060000df
:020000040000fa
:04012000fa060000db
:020000040000fa
:04012400fa060000d7
:020000040000fa
:04012800fa060000d3
:020000040000fa
:04012c00e4060000e5
:020000040000fa
:04013000fa060000cb
:020000040000fa
:04013400fa060000c7
:020000040000fa
:04013800fa060000c3
:020000040000fa
:04013c00fa060000bf
:020000040000fa
:04014000fa060000bb
:020000040000fa
:04014400fa060000b7
:020000040000fa
:04014800fa060000b3
:020000040000fa
:04014c00fa060000af
:020000040000fa
:04015000fa060000ab
:020000040000fa
:04015400fa060000a7
:020000040000fa
:04015800fa060000a3
:020000040000fa
:04015c00fa0600009f
:020000040000fa
:04016000fa0600009b
:020000040000fa
:04016400fa06000097
:020000040000fa
:04016800fa06000093
:020000040000fa
:04016c00fa0600008f
:020000040000fa
:04017000fa0600008b
:020000040000fa
:04017400fa06000087
:020000040000fa
:04017800fa06000083
:020000040000fa
:04017c00fa0600007f
:020000040000fa
:04018000fa0600007b
:020000040000fa
:04018400fa06000077
:020000040000fa
:04018800fa06000073
:020000040000fa
:04018c00fa0600006f
:020000040000fa
:04019000fa0600006b
:020000040000fa
:04019400fa06000067
:020000040000fa
:04019800fa06000063
:020000040000fa
:04019c00fa0600005f
:020000040000fa
:0401a000fa0600005b
:020000040000fa
:0401a400fa06000057
:020000040000fa
:0401a800fa06000053
:020000040000fa
:0401ac00fa0600004f
:020000040000fa
:0401b000fa0600004b
:020000040000fa
:0401b400fa06000047
:020000040000fa
:0401b800fa06000043
:020000040000fa
:0401bc00fa0600003f
:020000040000fa
:0401c000fa0600003b
:020000040000fa
:0401c400fa06000037
:020000040000fa
:0401c800fa06000033
:020000040000fa
:0401cc00fa0600002f
:020000040000fa
:0401d000fa0600002b
:020000040000fa
:0401d400fa06000027
:020000040000fa
:0401d800fa06000023
:020000040000fa
:0401dc00fa0600001f
:020000040000fa
:0401e000fa0600001b
:020000040000fa
:0401e400fa06000017
:020000040000fa
:0401e800fa06000013
:020000040000fa
:0401ec00fa0600000f
:020000040000fa
:0401f000fa0600000b
:020000040000fa
:0401f400fa06000007
:020000040000fa
:0401f800fa06000003
:020000040000fa
:0401fc00fa060000ff
:020000040000fa
:04020800fa060000f2
:020000040000fa
:04020c00500300009b
:020000040000fa
:040210009203000055
:020000040000fa
:040214007003000073
:020000040000fa
:04021800b20300002d
:020000040000fa
:04021c00fa060000de
:020000040000fa
:04022000fa060000da
:020000040000fa
:04022400fa060000d6
:020000040000fa
:04022800fa060000d2
:020000040000fa
:04022c00fa060000ce
:020000040000fa
:04023000fa060000ca
:020000040000fa
:04023400fa060000c6
:020000040000fa
:04023800fa060000c2
:020000040000fa
:04023c00fa060000be
:020000040000fa
:04024000fa060000ba
:020000040000fa
:04024400fa060000b6
:020000040000fa
:04024800fa060000b2
:020000040000fa
:04024c00fa060000ae
:020000040000fa
:04025000fa060000aa
:020000040000fa
:040254007e06000022
:020000040000fa
:04025800220600007a
:020000040000fa
:04025c00fa0600009e
:020000040000fa
:04026000fa0600009a
:020000040000fa
:04026400fa06000096
:020000040000fa
:04026800fa06000092
:020000040000fa
:04026c00d2030000b9
:020000040000fa
:04027000fa0600008a
:020000040000fa
:04027400fa06000086
:020000040000fa
:04027800fa06000082
:020000040000fa
:04027c00fa0600007e
:020000040000fa
:04028000fa0600007a
:020000040000fa
:04028400fa06000076
:020000040000fa
:04028800fa06000072
:020000040000fa
:04028c00fa0600006e
:020000040000fa
:04029000fa0600006a
:020000040000fa
:04029400fa06000066
:020000040000fa
:04029800fa06000062
:020000040000fa
:04029c00fa0600005e
:020000040000fa
:0402a000fa0600005a
:020000040000fa
:0402a400fa06000056
:020000040000fa
:0402a800fa06000052
:020000040000fa
:0402ac00fa0600004e
:020000040000fa
:0402b000fa0600004a
:020000040000fa
:0402b400fa06000046
:020000040000fa
:0402b800fa06000042
:020000040000fa
:0402bc00fa0600003e
:020000040000fa
:0402c000fa0600003a
:020000040000fa
:0402c400fa06000036
:020000040000fa
:0402c800fa06000032
:020000040000fa
:0402cc00fa0600002e
:020000040000fa
:0402d000fa0600002a
:020000040000fa
:0402d400fa06000026
:020000040000fa
:0402d800fa06000022
:020000040000fa
:0402dc00fa0600001e
:020000040000fa
:0402e000fa0600001a
:020000040000fa
:0402e400fa06000016
:020000040000fa
:0402e800fa06000012
:020000040000fa
:0402ec00fa0600000e
:020000040000fa
:0402f000fa0600000a
:020000040000fa
:0402f400fa06000006
:020000040000fa
:0402f800fa06000002
:020000040000fa
:0402fc00fa060000fe
:020000040000fa
:04030000fa060000f9
:020000040000fa
:04030400fa060000f5
:020000040000fa
:04030800fa060000f1
:020000040000fa
:04030c00fa060000ed
:020000040000fa
:04031000fa060000e9
:020000040000fa
:04031400fa060000e5
:020000040000fa
:04031800fa060000e1
:020000040000fa
:04031c00fa060000dd
:020000040000fa
:04032000fa060000d9
:020000040000fa
:04032400fa060000d5
:020000040000fa
:04032800fa060000d1
:020000040000fa
:04032c00e4060000e3
:020000040000fa
:04033000fa060000c9
:020000040000fa
:04033400fa060000c5
:020000040000fa
:04033800fa060000c1
:020000040000fa
:04033c00fa060000bd
:020000040000fa
:04034000fa060000b9
:020000040000fa
:04034400fa060000b5
:020000040000fa
:04034800fa060000b1
:020000040000fa
:04034c00fa060000ad
:020000040000fa
:04035000fa060000a9
:020000040000fa
:04035400fa060000a5
:020000040000fa
:04035800fa060000a1
:020000040000fa
:04035c00fa0600009d
:020000040000fa
:04036000fa06000099
:020000040000fa
:04036400fa06000095
:020000040000fa
:04036800fa06000091
:020000040000fa
:04036c00fa0600008d
:020000040000fa
:04037000fa06000089
:020000040000fa
:04037400fa06000085
:020000040000fa
:04037800fa06000081
:020000040000fa
:04037c00fa0600007d
:020000040000fa
:04038000fa06000079
:020000040000fa
:04038400fa06000075
:020000040000fa
:04038800fa06000071
:020000040000fa
:04038c00fa0600006d
:020000040000fa
:04039000fa06000069
:020000040000fa
:04039400fa06000065
:020000040000fa
:04039800fa06000061
:020000040000fa
:04039c00fa0600005d
:020000040000fa
:0403a000fa06000059
:020000040000fa
:0403a400fa06000055
:020000040000fa
:0403a800fa06000051
:020000040000fa
:0403ac00fa0600004d
:020000040000fa
:0403b000fa06000049
:020000040000fa
:0403b400fa06000045
:020000040000fa
:0403b800fa06000041
:020000040000fa
:0403bc00fa0600003d
:020000040000fa
:0403c000fa06000039
:020000040000fa
:0403c400fa06000035
:020000040000fa
:0403c800fa06000031
:020000040000fa
:0403cc00fa0600002d
:020000040000fa
:0403d000fa06000029
:020000040000fa
:0403d400fa06000025
:020000040000fa
:0403d800fa06000021
:020000040000fa
:0403dc00fa0600001d
:020000040000fa
:0403e000fa06000019
:020000040000fa
:0403e400fa06000015
:020000040000fa
:0403e800fa06000011
:020000040000fa
:0403ec00fa0600000d
:020000040000fa
:0403f000fa06000009
:020000040000fa
:0403f400fa06000005
:020000040000fa
:0403f800fa06000001
:020000040000fa
:0403fc00fa060000fd
:020000040000fa
:100400008f4a21000e7f22000e01880000000000ac
:10041000000020000000e000020032000001200087
:100420002002880014000700c30207000000e0005b
:1004300003003a00e0772a000100200002003700a4
:100440000000200001002000810f70000100320038
:1004500014000700000020000000e000020032004d
:1004600000000200000000000aac020000000000d2
:100470000040da000000fe004440a9002066200091
:100480000000e000030032000020200090018800fe
:100490004440a800000006008a1f78008b1f7800e7
:1004a00000000600a1028800800478000000eb0034
:1004b0001f003700e284440054a0b4009905ba003c
:1004c000e284440054a0b4009906ba00e2844400d7
:1004d00054a0b4000006eb00476fde00fd07b20039
:1004e000ae018800636ce10003003a00eaff0700f8
:1004f0000000eb000e003700606ce10008003a00dd
:10050000004deb000a05e800020039003420ec0041
:100510000af0a0008b05e900f9ff3e000400370057
:100520006168e100010032000086eb000b0007006b
:1005300019c7ba001905ba000e04e00003003a001a
:100540000a00e000dbff3a0000000600fe07b200f0
:10055000ae0288008a047800f5ff37000cd0a300b3
:10056000e20f4d001c00390089027800354dba00b9
:100570000a05e800020039003420ec000af0a0006f
:100580008b05e9000f003200254dba000a05e8008e
:10059000020039003420ec000af0a0008b05e900cd
:1005a000080032000c00e0000600320015cdba0051
:1005b0000a05e800020039003420ec000af0a0002f
:1005c0008b05e9008984e80054a0b4000b00e0002a
:1005d000e2ff3a00000006009902ba00055d7800cb
:1005e0008b05e900f7ff3200c82ade00055d7800c0
:1005f0008b05e900f3ff32000c00e000f1ff320050
:1006000019ddba00eeff3700cea80400000000009c
:1006100022ae0400000000002ca90400000000002d
:1006200046a904000000000078a9040000000000b2
:10063000a6a9040000000000d6a9040000000000e4
:10064000e2a904000000000008aa04000000000065
:10065000eca90400000000002cae04000000000023
:100660002c9f0400000000004a9f040000000000ce
:10067000fc0804000000000028090400000000003d
:10068000420904000000000070090400000000009e
:100690003615040000000000000004000000000007
:1006a0003600f800809fbe00829fbe00849fbe007f
:1006b000869fbe000000fa008020a9000000eb0029
:1006c000875507000080fa004f03be004f02be00ae
:1006d0004f01be004f00be003600f900004006008a
:1006e0003600f800809fbe00829fbe00849fbe003f
:1006f000869fbe000000fa007e5507008040a900da
:1007000010002000765507000080fa004f03be005d
:100710004f02be004f01be004f00be003600f90080
:10072000004006003600f800809fbe00829fbe0099
:10073000849fbe00869fbe000000fa008060a90072
:1007400020002000665507000080fa004f03be001d
:100750004f02be004f01be004f00be003600f90040
:10076000004006003600f800809fbe00829fbe0059
:10077000849fbe00869fbe000000fa008080a90012
:1007800030002000565507000080fa004f03be00dd
:100790004f02be004f01be004f00be003600f90000
:1007a000004006003600f800809fbe00829fbe0019
:1007b000849fbe00869fbe000000fa008620a9002c
:1007c0002117800000082000008060000000e00089
:1007d00008003200e4e2a9004c28ef0090428000bb
:1007e000200090008000eb00010878005228ef0004
:1007f0000d013700604280008000eb00b200200055
:1008000003002000820f5000838f5800fc003e0040
:10081000006001000b003700390037007500370019
:100820009c003700f3003700c8003700d9003700bc
:10083000f0003700db003700f100370034003700ec
:1008400050003700408420002000900062006000cb
:100850000000e000f3003a00408420001000900007
:1008600090428800408420001000900010407800e2
:100870004ee8b70040842000100090001000900067
:10088000804288004084200010009000e600400074
:1008900040842000110098004084200090009000c7
:1008a000e0452100808f500003003a004084200082
:1008b000814521001100980040842000a000900094
:1008c0000100a100210098004084200090009000c9
:1008d0004084200010007800808f500004003a000f
:1008e00040842000a00090000110a000210098008a
:1008f000e002a8002000200060428800ca00370003
:10090000e022a8002000200060428800c6003700d6
:100910002117800000002800008060000000e00037
:100920000800320040842000604090008040e800d1
:10093000408420006140980040002000d84f07000c
:10094000b9003700a04280008000d100f00f2000e5
:1009500000806000e0168800a04280006100600016
:10096000004078000004e00003003200b0002000e6
:1009700060428800ac0037003000200060428800f0
:10098000a9003700211780000000280000806000c7
:100990000000e00008003200408420006040900029
:1009a0008040e80040842000614098004000200022
:1009b000bb4f07009c003700e022a800a042800047
:1009c0004800de00e6006000000f2000010070001b
:1009d000a0428800a04280000000a000a042880041
:1009e00010c0b30056e8b700200020006042880025
:1009f0008d00370056c8bf00e14f50000a0032009a
:100a00008042800010007800a04288008042800070
:100a100020009000c042880080428000204090006a
:100a20005ae8b700010037005668ef00a142800085
:100a3000f00f2000808f500009003600a042800097
:100a40004800de00e6006000000f2000010070009a
:100a5000e0168800a0002000604288007200370085
:100a6000a0428000e0168800a04280006100600083
:100a7000004078000004e000030032005000200035
:100a80006042880068003700300020006042880023
:100a900065003700211780000000280000806000fa
:100aa0000000e00009003200408420006040900017
:100ab0008040e8004084200061409800e5e2a90001
:100ac00050002000764f0700570037005ac8bf007b
:100ad0008080fb008100e900cf08de0081407800c3
:100ae0000040e9005ae8b7000104e00010003200bd
:100af0008042800066004000804288004ec8bf00ef
:100b00000040e9004ee8b7004ec8bf000004e00016
:100b100003003a0020002000614f07004200370028
:100b2000e022a80020002000604288003e0037003c
:100b3000c0428000904078008180fb00e116880070
:100b40000000e800c042880037003700211780000d
:100b500000002800008060000000e0000900320072
:100b600040842000604090008040e80040842000e5
:100b70006140980040002000494f0700e5e2a900cd
:100b800029003700e062a800800020006042880051
:100b9000250037008000200060428800e062a80045
:100ba00021003700c0428000d116800081407800cb
:100bb000014878000000e800c04288005ac8bf0021
:100bc0000040e9005ae8b7005ac8bf000004e0003e
:100bd00004003200e0a2a90060002000604288000a
:100be00002003700e0a2a8001c4f0700e082a80026
:100bf0000d00370020002000294f07000a003700b1
:100c000040842000604090008040e8004084200044
:100c10006140980060002000214f070000000000a4
:100c200001003700000000000080fa004f03be0002
:100c30004f02be004f01be004f00be003600f9005b
:100c4000004006003600f800809fbe00829fbe0074
:100c5000849fbe00869fbe000000fa00c043800053
:100c600000000100a143800090438000808f50006d
:100c700002003a009580a900190037008580a9007c
:100c800010003700a0438000904078008180fb0076
:100c9000212888000000e800a0438800a1438000cc
:100ca00030472100808f500002003a00a04621000a
:100cb000a0438800a143800090438000808f5000b3
:100cc0000600320011288000002020000080600013
:100cd0000000e000ebff32000100370000000000e0
:100ce0000080fa004f03be004f02be004f01be005d
:100cf0004f00be003600f900004006003600f80044
:100d0000809fbe00829fbe00849fbe00869fbe0063
:100d10000000fa00d0438000000001008560a900b7
:100d20001e00370070438000312880008140780029
:100d30000148780071438000b0472100808f500047
:100d400009003200704380008000e800804380008a
:100d5000808f500004003200704380000000e800e3
:100d6000704388000d00370071438000b0472100b8
:100d7000808f500007003a008143800030472100f7
:100d8000808f5000030032003047210070438800fc
:100d90000200370010c0b30076e8b70010288000ca
:100da000610060000000e000deff3a000080fa0011
:100db0004f03be004f02be004f01be004f00be00f9
:100dc0003600f90000400600801f78000000fa009d
:100dd00010288000620060000000e0000100320086
:100de0000225a9008c20a9000080fa004f0078009d
:100df000004006000040da000000fe000a00fa0091
:100e000011002000b1bf9f00c0bf9f006a80570043
:100e1000520807004fb897000080fa000000060053
:100e20000a00fa0051002000b1bf9f00c0bf9f0020
:100e30006a8057004b0807005fb897000080fa00ef
:100e400000000600889fbe008004780030a5800066
:100e50000000e00004003a000e0007000084eb00f0
:100e60000000e0000800350038a580000900e0001f
:100e70000500320009004400060007000000e00001
:100e800001003d000084eb00080078004f04be0024
:100e900000000600800078000100e00003003a0036
:100ea0000000200030a58800000005000080eb0055
:100eb00002002000828f500002003e0031a5880011
:100ec0000000eb00000006000a00fa00200798006e
:100ed0003107980042079800be0090001107980063
:100ee0000000eb00000f78000c003700000000004d
:100ef000214c07000004a2000004e000fcff3a00bf
:100f00001e009000104078009e0090008100e800d4
:100f100011079800f84b07001e0fe8004e009000e4
:100f20009e007800808f5000f0ff39004e00900046
:100f30000080fa000000060000000500f4ff2f000a
:100f4000120037006011b8002b0037006022b80093
:100f5000060220000000d0008180d2000482d2006e
:100f60008582d2000000a0000202520083825a0053
:100f7000030031000202420083824a000000a10007
:100f80000603e900f3ff3a0000000600889fbe0058
:100f90008a9fbe00841f78006c0007004f00780015
:100fa00011003300f0ff2f00838f6c0006003b0020
:100fb000040565000a00a7000800370009f0a60034
:100fc0001000200008003700820f5400838f5c005f
:100fd000030039001000200001003e000000200046
:100fe00009f0a7000000ea004f05be004f04be0054
:100ff0000000e00000000600889fbe008a9fbe003f
:101000000082700004027100048271002600320028
:101010000004be000200be006011b8006b09200091
:10102000950220000182cf000a0039000541b1007d
:101030000082cf00070039000541b1000982cf00ce
:10104000040039000541b1000882cf0001003900d9
:101050000541b10005425200120032000a003b0077
:1010600082817100610164008100d1000080d300a1
:101070008984d3000884d3008b05e8000442e8008b
:10108000f7ff3a00070037000804440089844c0049
:1010900000004800818048008b05e9000442e90017
:1010a000f9ff3a00030007004f05be004f04be00e1
:1010b0000000060081002000618055000b003d000b
:1010c0000b00200061fe2f000100e1001d00340034
:1010d00082817100610164008904d1000884d30019
:1010e0000000e800faff3a0071002000610064008f
:1010f0000300700002006000090032006104440037
:10110000e0844c000988a500050032008b05e8004a
:101110006808e10002003a008904d1000884d30085
:10112000f20f20000258e10005003d00c75ddd0020
:10113000f907b200898075000800780000000600f9
:101140000bf827008b007800000005000004be00ab
:10115000060007000003be000405be000200be003a
:1011600002000700844f750000000600c70ade0079
:10117000f107b200f50fb20008003200e1cf4200e3
:10118000020032000170a00024000500810f7000f1
:10119000010032000408050044000500810f7000c2
:1011a00002003a00140005008502e900000040003a
:1011b00081c04800fcff3b000170a0002400050036
:1011c0008001780002003700b15978000201e9007f
:1011d0000200e000fcff3a000000060080017800f9
:1011e00002003700815978000201e9000200e000a6
:1011f000fcff3a0000000600889fbe000004780053
:1012000001007800820478008801780009017800e4
:10121000110020008a030700890f500001003200ee
:101220000004eb00080078004f04be000000060038
:101230000000fa00e88157004fb99700613621009d
:10124000c08f2000f00007000080fa0000000600b8
:10125000889fbe00800478000203be00010478006d
:101260006149b800898fd2008381d20008027800da
:101270000600be003d070700088044004f04be0082
:1012800000000600881f780002047800080178003a
:10129000cbff0700080040004f0478000000060064
:1012a0000000fa00881f7800000478006a82570066
:1012b000bfb9970008017800819220002094200097
:1012c000160007000000e000020035008040eb003f
:1012d000017478004f0478000080fa0000000600d6
:1012e000889fbe00000478000203be0081047800dd
:1012f0000802780089017800120020000600be0074
:101300001b050700890f5000010032000004eb00ac
:10131000080078004f04be00000006006800fa00d4
:10132000889fbe008a9fbe00800478000104780078
:1013300082057800030578008400780000f92f000a
:101340000f00400008050700d98f9f00fb8f9f000a
:101350000000eb00a09f9f00e88f9f009a84fb0095
:101360000904fb008904ea00cf4cde005002200093
:10137000800f54000d003200e18f54000b003a0042
:10138000090178008a0078007f889700df8997003c
:1013900003000100f08f9f000000e0009500320084
:1013a0002f9897000000e800a09f9f0009054500c6
:1013b00050022000800f5400040032000800e000ba
:1013c000e6ff3a002f9897008b0037000000eb00f3
:1013d000809f9f00f0979f00e0979f00d0979f000d
:1013e000c0979f00b0979f0007003700214521005c
:1013f00001005000000040006144210061007800bd
:10140000cf98970001007000c09f9f000a047800e9
:1014100008057800ba4478008900fb0020452100c7
:101420007a0307000000e000f0ff3a00a1c2b30019
:1014300081cf54000e003a008f8897000180e900a8
:10144000808f9f0010007800b09f9f000000e00098
:1014500005003d000000ea00b09f9f004f989700f4
:101460000020a000c09f9f000804e8001000370083
:10147000b09f9f00880078000000eb000500370057
:10148000f3ff2700830f5000020032006a02b90008
:101490000400410001047800880078003101fb005d
:1014a0000203b100e90f5100f5ff3600b09f9f0025
:1014b000e0c2b300984f1000020032000080eb0041
:1014c00019003700a0c2b300d84f100007003a003f
:1014d0008f8897000180e900808f9f0010007800be
:1014e000909f9f000804e800100037000000eb0008
:1014f000909f9f008800780005003700f3ff2700c9
:10150000830f5000020032006a02b900040041005b
:1015100001047800880078003101fb000203b1006b
:10152000e90f5100f5ff3600909f9f009844780026
:101530008900fb00e0432100340307000000e000c5
:10154000020032000804e800010037008044eb008c
:10155000a97f9f0080c6b30080cf540006003a00e8
:1015600098cf140010003a0066405000a07f9f0002
:101570000804e8000c003700c0c6b30080cf540058
:1015800009003a0098cf140007003a006740400075
:10159000d84f100002003a006e40500001003700a2
:1015a00010c7b300a07f9f001801fb00c3fb2f00f2
:1015b0008f81410001f92f008f80400020f92f001a
:1015c0000f004000150007000000e00009003a008d
:1015d000c1fb2f008f80400020f92f000f0040003a
:1015e000870307000000e000020035000805e8005e
:1015f0005aff37000080eb004f05be004f04be00cd
:101600000080fa00000006000302780082017800e2
:10161000010178000197200040ff3700889fbe003d
:101620008a1f78000004780082447800030578005f
:1016300070c4b30080cf54000a003c0000c0e90031
:1016400080cf54000f003d0050c2b30080cf540043
:10165000350032007c40400080cf540035003a0015
:101660000800370010c6b30080cf540005003200d8
:1016700030003500b0c9b30000c04400e24f500054
:101680002c003e0008699000c0c4b300804f510098
:1016900006003a00110178006800510080087800c7
:1016a0005001be004000be00050037001101780067
:1016b00064005100800878001000be002707070072
:1016c000009cbe000294be00b80090002808900064
:1016d0000100e00002003d00d1c2b3000800370065
:1016e000b81090000118a30002003200b1c2b3008c
:1016f000030037000108a3000400320001c2b30058
:10170000017578000000e800200c9800280890007f
:10171000000545007a0498008900fb000800780065
:10172000100007000b0037002808900009757800aa
:101730000600370028089000000545000904e00075
:1017400001003a0059c2b300094d78000000e800da
:10175000200c98000000eb004f0578004f04be00fd
:10176000000006002f04b000889fbe008a9fbe00c4
:101770008c9fbe008e1f78000007780081f79f00c5
:101780003e04be002e05be000e1090000000e000da
:1017900002003d0060002000001798008e007800d5
:1017a00020fb2f000f004000eb020700e20f50006b
:1017b0000a003a0030002000400f9800b1c9b30081
:1017c0000ff0970081404000a03c2100e1cf500085
:1017d0000d003e00603c21000b0037000000e000df
:1017e0000f00340030002000400f9800b1c9b30052
:1017f0000ff1970081404100203d2100e1cf5000d2
:1018000001003e00e03c2100fe009000b04878005e
:10181000b06878001040780090409800f3003700de
:101820000000e00005003a0022fb2f000f014100fc
:10183000001978008001eb00e70037006022b80053
:101840006033b8000800be000a01be000b060700a6
:101850000000e00001003d000bf0a20070592700dd
:101860009f9897000088b900026a280013002000a2
:1018700066060700640650009c9f9f0013003b0013
:1018800063061600c0ff2f00000666008c01ea0008
:10189000939f9f006d3d21000800be000a01be001d
:1018a000070037000c08a300030032003d02be0011
:1018b0002d03be00f80607000c86d100e88646001e
:1018c0000c00e000f7ff3c00180037000c00e000bf
:1018d00018003200c0ff2f00000666009c9f9f008a
:1018e0006d3d21006000b8000200200003ff2300ce
:1018f000070037000c08a300030032003d02be00c1
:101900002d03be00e40607000c86d100e8864600e1
:101910000c00e000f7ff3c000002be000203be0026
:101920000800be000a01be00de0507000004be007c
:101930000205be008e10900060c6b3000ff2970043
:10194000804f5200040032006000200062c4b300e7
:10195000824f520002003a009f9a97006a8042002c
:1019600081004000f1b79f0001037800f30f53009e
:101970000200340037012000f7b79f0000c3b30016
:10198000c0779f0056fb2f000f0343000e00780026
:10199000a0b79f00060778003d0037000800be0092
:1019a0000a01be008c0607000006be007fb197004a
:1019b00068015100f2b79f004240a9000c003400ba
:1019c000b10607000002be000203be000800be0010
:1019d0000a01be00260707006022b80046782d00e5
:1019e00077192400ac0607000004be000205be0003
:1019f000e80047008e0020000802be000a03be0077
:101a0000b4b79f00c5b79f00d6b79f00e7b79f0048
:101a10000c01be00010478000c003700a400200077
:101a200005002000c0fd2f000f004000d801070076
:101a30006fa89700ffa897000fb197009fb197007c
:101a400005c3b300056441000001be00e00f510072
:101a5000e08f5900030034000e07e900e10f470052
:101a6000eeff3a00880078003fb49700cfb49700ab
:101a70005fb59700efb597000200370000c3b300d1
:101a8000806078000e07e900fcff3b00688740009b
:101a90007fb397000600e000070034006022b80022
:101aa0006033b8000800be000a01be0078050700d8
:101ab0000000e000b9ff3c000e0378002fb797004c
:101ac00051fb2f008f804000010353009f9b970024
:101ad00067804300909f9f00020037000603e900e3
:101ae0000000e900010178008200780003c3b30020
:101af000b1cf1100f9ff3200909f9f008e1190002e
:101b000061c6b3000ff29700814f5200030032000c
:101b100061c4b300814f520002003a000000e800a7
:101b20000a0037001000200051c6b3008ff2970062
:101b300081cf5200050032000540780050c4b20049
:101b40000080fb000000e9004f00de008301400040
:101b5000868f510001003400860178000300e00008
:101b60001d00350000c3b300868f510006003d0004
:101b700062c279006940400041c3b300814f520006
:101b800001003c00694050008300e90081004100f1
:101b900001003700840178000302e90001037800a6
:101ba000a142780080cf5200faff320091c3b30007
:101bb000814f500001003a00054be8000400e000ae
:101bc00005003d000201e9008301e8001f9b97002a
:101bd0000603e800969f9f008ff397008700fb00a5
:101be0001f9a97000e007800060007004f07780044
:101bf0004f06be004f05be004f04be002f04b100cb
:101c000000000600f0874700889fbe008a9fbe0044
:101c10008c9fbe008e1f78000004780081447800fd
:101c20000205be00040678000b00e00002003c0044
:101c30001b0020000a4a210060c6b30080cf540078
:101c40000e00320060c4b30080cf54000b0032009d
:101c500070c6b30080cf54000300320070c4b300dc
:101c600080cf540081003a00e40f46007f00350029
:101c700008109000800f56007c003d000c06e80024
:101c800060c6b30080cf54001000320060c4b300bf
:101c900080cf54000d003200381090000038a300af
:101ca00004003a0008109000808f550001003d00ac
:101cb0000b149800081090000c00500000149800bd
:101cc00002003b000000eb00001498004808900060
:101cd000f80090000c00e00026003c0002c3b300b6
:101ce000827078000000e800400c98008810900096
:101cf0000100e00003003c00b81090000138a30090
:101d000005003200f8009000e2c2b3008270780053
:101d10000000e800400c9800081090008c00ea00d9
:101d2000810f500001003d000006ea008c00ea002f
:101d3000510c9800000646000c1498008b0f5600ba
:101d4000010034000b0678006c0c9800f80090003d
:101d500048089000008040000c0178008a0078005c
:101d600017fd0700081090000c0650007c0c98002e
:101d7000900037008c8f550018003d000080400017
:101d80000b0178008a0078000dfd070048089000dc
:101d900000804500400c98008b0556005b0c9800b5
:101da000881090000100e00003003c00b810900093
:101db0000138a30006003200f8009000e2c2b30030
:101dc00082707800680890000000e800600c9800bd
:101dd00008109000700c98007600370000804000da
:101de0000c0178008a007800f5fc07004808900094
:101df00000004600400c98008c855500881090002b
:101e00000100e00003003c00b81090000138a3007e
:101e100005003200f8009000e2c2b3008270780042
:101e20000000e800400c980008109000808f5500da
:101e30000100340080057800f80090004808900008
:101e4000008040008c0045000b017800dcfc07009e
:101e5000480890000b004000400c980008109000cb
:101e60008b0550005b0c980052003700480890002a
:101e7000f80090009a7078000000e800400c98008c
:101e8000881090000100e00003003c00b8109000b2
:101e90000138a30005003200f8009000e2c2b30050
:101ea000827078000000e800400c98000810900054
:101eb0000000e000100034008b05e900808f550021
:101ec0000100340080057800f80090004808900078
:101ed000008040008a00e8000b017800b8fc070091
:101ee000480890000b004000400c9800081090003b
:101ef0008b0550005b0c9800f8009000480890009b
:101f000000804000095878000007e8000c00e0005d
:101f100004003500b1c2b300014878008e04780097
:101f200004003700d1c2b300014878008e04780065
:101f30000c06ea007d8557008006eb00090037009b
:101f4000a20020008c00780072805700310007004a
:101f50007fb097008fb89700016d78000006780079
:101f60008d06e8000c00e000f5ff3c000d00e000ed
:101f700009003a008e04780000c3b300805c78004a
:101f8000050037008d06e900fc80570061c07e0027
:101f900002c3b300825c40000d00e000f9ff3c008a
:101fa000f8009000480890000080400080845400b1
:101fb000690c98003810900074006000f00f500019
:101fc0000e003a00c80890002808900000804000e9
:101fd000d808900001004000e8089000010040008f
:101fe000f808900001004000a8109000810f5000f8
:101ff00002003d0000805000300c98004f07780030
:102000004f06be004f05be004f04be000f01b100d9
:10201000000006008002780001037800110009002a
:102020000203d80080017800830a78000299b90081
:10203000020153009202980005007800000006009b
:10204000889fbe008a9fbe008c9fbe008e1f7800b6
:10205000000678000104780002007800830478000c
:102060000881b900020778000200e0004200320057
:102070000800e0004100320082057800c9009000ad
:1020800069009000808f500004003900090078003a
:102090006a0007000000e000290035000040200031
:1020a000190060000a0032000b017800a100200036
:1020b0000c0078004b000700800678000d00e0005f
:1020c00006003200610516000a854600040037004c
:1020d0000b0578008006eb00010037000b05780047
:1020e00049009000e9009000808050008a8f5000e5
:1020f00002003100010578008006eb000a0178003b
:102100008c0078002efc07008a855500490090005d
:102110000a004000c00498000d00e00004003200f6
:1021200009007800610207000000e00004003a00a6
:102130000b00e000020032000a064600cfff370025
:1021400000802000190060000200320009007800c1
:102150005602070000c02000190060000200320093
:1021600049009000e00498008b0557001100090019
:102170008885d800010037000000eb004f07780089
:102180004f06be004f05be004f04be000000060013
:10219000881f78008a9fbe008c9fbe0000047800d4
:1021a0000205be000406be000401be000a00be0017
:1021b00016040700008cbe000c01be002e050700af
:1021c0000005550081855d002a0498003b049800b5
:1021d000080078004f06be004f05be004f0478008f
:1021e0000000060003003700b0cf100005003200e9
:1021f0000201e900800178000200e000faff3a00e5
:10220000000005000300780000000600020037000f
:102210000304e000060032000001780002007800ac
:10222000b041780081cf5100f9ff3a00010037003a
:102230000001eb000200780000000600889fbe004d
:102240008a1f780000047800c800900068019000a0
:102250000000eb00828f50003c003900180078002d
:102260002200290002016000e20f51000700320045
:10227000012020000000e0000100350001202400c2
:10228000008c70000080eb00300037000200260058
:1022900002006000820f500009003a0038009000f0
:1022a000808f50000600390008007800ff01070009
:1022b000800078000080eb000100e00023003a007d
:1022c0001805780000c020000000650018003a00e2
:1022d000a80490006002200008004000808f540095
:1022e00013003a0000202000e802070020049800b4
:1022f0000000e00005003a00290498004904980015
:102300008904e80039049800080037000a60a0003a
:102310000a0c7800400498000120200080804000d2
:1023200031049800400c9800500c98007e01070082
:102330002800900050049800380090006004980035
:1023400000002600180c70000000eb004f0578001c
:102350004f04be0000000600889fbe000004780005
:10236000e68440001900d0004500de00f27f200026
:10237000820f500010003a00000ceb009904780026
:102380006f816400200020001b003a0021019000b2
:102390000200e00018003a00110190000200e00085
:1023a00015003a00100020001100e0001200320079
:1023b00020002000100037000000e00004003a0078
:1023c00001007800000207000000e00008003c0067
:1023d000f20028001901610001fe2300810c710048
:1023e00021c02f00010c40000080eb0002003700ec
:1023f000000ceb000000eb004f04be0000000600e4
:102400000400fa00889fbe008a9fbe008c1f7800df
:102410000004780001067800a814900028089000b5
:10242000808454003808900080845400480890004c
:1024300080845400580890008084540068089000fc
:1024400080845400780890008084540000022200a8
:1024500090bf9f0000032300a0bf9f003810900092
:102460000028a30015003a000900e0001300340022
:10247000090578008a057800e20f55000100360052
:102480002b002000c80190000b017800ee8057005f
:102490006800900003000100600498000000e00064
:1024a000aa003200181090000b0040001014980091
:1024b0000b0555004240a900eeff3c0028099000a2
:1024c0000200e0000c003400c80190008c0078008d
:1024d0006800900003000100600498008080eb0019
:1024e0000000e0009a003200981090002808900048
:1024f0000080400010149800380d90000a00e000a1
:10250000110034008a057800e20f55000100360002
:102510002b002000c80190000b017800ec805700d0
:102520006800900003000100600498000000e000d3
:1025300086003200181090000b0040001014980024
:102540000b055500edff370008699000c8089000a2
:1025500050c6b300804f510008003a000100e0006f
:102560001500340058029000080990009809900066
:102570006800900004000100070037000100e0003f
:102580000d003400c801900001017800f8009000af
:102590006800900003000100600498008080eb0058
:1025a0000000e0006a003200981090004808900097
:1025b0000080400010149800580d90000a00e000c0
:1025c000110034008a057800e20f55000100360042
:1025d0002b002000c80190000b017800ec80570010
:1025e0006800900003000100600498000000e00013
:1025f00056003200181090000b0040001014980094
:102600000b055500edff3700086990006808900041
:1026100051c6b300814f51000d003a000000e000a8
:102620001c00340078019000c808900001014100ae
:102630006111b800828fd2008381d20058029000cd
:102640008000780068009000040001000900370055
:102650000000e0000f00340078019000c8089000ee
:1026600081004100c80190000001780068009000de
:1026700003000100600498008080eb000000e0008f
:1026800033003200981090006808900000804000ed
:1026900010149800780d90000a00e000110034003a
:1026a0008a057800e20f5500010036002b0020005b
:1026b000c80190000b017800ec8057006800900082
:1026c00003000100600498000000e0001f003200d9
:1026d000181090000b004000101498000b055500d6
:1026e000edff3700381090008000eb000028a300b9
:1026f000170032000900e0001500340009057800d9
:10270000e28f5400010036002a002000c80190002a
:102710000a017800ee805700680090000300010075
:10272000600498000000e0000800320018109000db
:102730000a004000101498008a8454004240a90006
:10274000eeff3c008000eb00010037008080eb00d2
:10275000010078004f0678004f05be004f04be0010
:102760000080fa0000000600010878000000060062
:10277000e6874700889fbe008a9fbe008c9fbe00f0
:102780008e1f780082bf9f0004047800029ab9006f
:10279000f4b79f000400e000590032000fb9970021
:1027a0000200e000570032000006be000407780077
:1027b000c800900068009000808f5000040039002d
:1027c000080078009dfe07000000e0003b00350097
:1027d00000402000180060000a0032008e017800de
:1027e000a20020000c00be00090207000005be0088
:1027f00000807500070032008c0455008904e80051
:10280000050037008e0478000a0020000b0020002d
:10281000010037008e0478004801900068009000a5
:1028200002005000890f500003003100800478003e
:102830000a0020000b0020006111b800828fd20036
:102840008381d200090278000c00be00c701070096
:102850000907570048009000090040004004980014
:102860000a85750004003200080078008f00070018
:102870000000e00011003a000e00e0000f003200fe
:102880006148b800808fd2008180d20000007800bb
:1028900000f0a1008c01d0000001d00002864100b0
:1028a0004220a80081864e004200a9004220ae00ce
:1028b0004200a8000c86d300bdff37000080200036
:1028c000180060000200320008007800770007005e
:1028d00000c020001800600002003200c801900013
:1028e000630498007fb097000e0750000fb997005f
:1028f000110009000287d80080017800010037002c
:102900008001eb00030078004f0778004f06be00ff
:102910004f05be004f04be006f00b100000006006e
:10292000605321009c003700881f7800284a21004e
:102930001804e00003003a00f9ff070020c0b300cc
:10294000004c78004f04780000000600889fbe000d
:102950000004780008007800540007008004780024
:1029600000042000180060000200320028009000df
:10297000e10007000000eb002004980038409000c0
:102980000004e000050035000000fb001bf9070013
:102990000000e000010032008084eb00181090007d
:1029a0000000e000080032001df907000000e00010
:1029b000010032008084eb0018109000ce00070068
:1029c0000000eb00101498000008200018006000c0
:1029d000150032000001eb006000b800633b2100ed
:1029e0000202d00063027a00880f520005003a000c
:1029f0000000400081804800008041000008eb009a
:102a00000600370061004000e08048000201e80055
:102a1000e80f5000e08f5800f0ff3a0008007800ff
:102a2000b50007000e003700000c780000c0eb0076
:102a30003044980060022000080040002004980004
:102a40004004980050049800400c980060049800de
:102a5000500c98007004980076004400000c980018
:102a6000090078004f04be0000000600881f7800af
:102a70000004eb006140b800e2ff2f00f3ff2f00dd
:102a8000fd020700423c2100620078000000e000e7
:102a900001003200adff07000804e800e80f540011
:102aa000f4ff3a004f04780000000600889fbe0043
:102ab000000478000800e0000f003a008004eb00fa
:102ac000090478008800d000603b21006100780094
:102ad0000000e00004003200f4ff07000000e00006
:102ae00001003d008084eb000804e800e80f54007a
:102af000f4ff3a00250037000000220018006000b3
:102b00008004eb0021003200a80490000f00370081
:102b100009015100384090000000fb008900780056
:102b2000e9f807000000e00007003c0028009000e2
:102b30004004980060049800500c98001890a00081
:102b40008084eb001100370080844400480190002d
:102b5000828f5400eeff3900280090004004980056
:102b60009800780002c020000281600001003a0055
:102b70003800900001e8a3000200320060049800d1
:102b800001003700500c98008004eb000900780029
:102b90004f04be0000000600010020000100e0001c
:102ba00008003200010080000100e0000500320052
:102bb0008100e900010088008100d000020080004f
:102bc00000b1780000000600e60040001101780026
:102bd00005002800850261006f016100820878000d
:102be000020032001200200011003700a001900006
:102bf000120020000300e0000d003a009001900058
:102c00000300e0000a003a001000e00008003a006b
:102c10003600370064034000960878008001780091
:102c2000530b780090097800040878007001510077
:102c3000110278000400e000f6ff320013003700b4
:102c400064024000140378004f33de0083814100aa
:102c50008308730080017800d3037800cf3bde0047
:102c60001403780006034300068a730013027800f9
:102c700004024200100378004f33de008609720020
:102c800090017800038841000201e9009101780079
:102c9000ef8f5100eaff3600100037008001780006
:102ca000530378004f33dd001002d1000408730095
:102cb0006402400094037800cf3bdd001303d10091
:102cc00086897300110378004f33dd009401d10031
:102cd000030a73009108d1000201e8009101780015
:102ce000ff8f5100edff3e00ef8861009188720078
:102cf00002007800000006000000e0002f00320013
:102d0000c0017800e38f51002c0036000308a300b7
:102d10002a003a00f1a480000100e0000200320025
:102d2000810f50000400310011009800f0a48800c9
:102d30001600370082007800110190000200e000c8
:102d400002003200800f5100faff390011027800b2
:102d500084824000850f500018003900808f520097
:102d600003003a00830842000100780007003700a2
:102d70000200e0000300320083014000830f510095
:102d80000e0039001200980090009800900090000a
:102d90000100e0000900320010014000828f500065
:102da00006003a00c24921000009eb00100178003a
:102db00011084100910090001100980000000600e9
:102dc000889fbe0000047800e1a480000100e000bc
:102dd00002003200010078000d003700f1a48000ed
:102de000e049210004003700910f5400250036000f
:102df0000180e800910090000100e000faff3a0035
:102e000010003700920f54001e0036000280e800c8
:102e1000100178000200e000faff3a00110178008a
:102e2000f1a48000e049210004003700910f540014
:102e3000140036000180e80091009000828f50005d
:102e4000faff3a0029a58000888f54000100310064
:102e50008804780009007800360007000000e000d0
:102e600004003a00888f5400050032008904d10024
:102e7000f5ff3700091878009fff0700d2ff3700e1
:102e80000000eb004f04be0000000600881f780021
:102e9000630440000800a1008000eb00800f540094
:102ea00021003600e30f540001003e0048002000de
:102eb00008007800c2ff07008000eb000000e0007f
:102ec000190032009000780091017800648151006f
:102ed000880f5100030031001101900002087800b2
:102ee0000700370008814000020878009101900037
:102ef0001301980010017800110914008808780067
:102f0000100178000000eb000200e0000400320035
:102f1000920190000300e000010032000280e8000e
:102f2000e0a488008180e800010078004f04780068
:102f300000000600800078000000eb000100e000c7
:102f40000500340001007800bef70700e10f4000e3
:102f500001003a000000eb000000060000c0da00ab
:102f60000000060000c0da00000006003400f8008f
:102f70003200f8000203be00820270008502720077
:102f800002f0a6008301e800a301880000f0a6007b
:102f90008100e800910188001500b2000c003200a9
:102fa000104978000402e900150032006101410077
:102fb000020039003420ec000200280061004000cb
:102fc000f7ff39003220ec0000002800f4ff370042
:102fd000100978000482e900090032006201410012
:102fe000020039003420ec0002002800620040009a
:102ff000f7ff39003220ec0000002800f4ff370012
:103000003200f9003400f9000601be00000006009d
:103010000300e00007003200950180009101880064
:1030200010427800950188000402fb00820f5200d4
:10303000110032008301e9009501800091018800b0
:1030400010427800950188000404e0000800320076
:10305000000278001000b00000026a004260af0079
:1030600000f0a0000482d2000180b000e8ff370029
:103070000000200001002000000006008f1fd1008a
:10308000010207008f87e9000000e0000000060051
:10309000809feb00fc0107008f87e9000000e00043
:1030a000000006002800fa00889fbe008a9fbe002c
:1030b0008c9fbe0003866b008f0007006400e10058
:1030c000440032006408e1004a0032006100e1007f
:1030d000460032006108e10049003200ec0647007a
:1030e0006000b8003d02be003d03be00f4865700fc
:1030f0006011b8003d04be003d05be007d03200008
:103100000b0037000000a0008d06e900130032001c
:103110000402420085824a0006034b0087834b006d
:10312000000040008180480002014900838149007d
:103130000802520089825a000a035b008b835b00fd
:10314000f0ff3b000802420089824a000a034b005c
:103150008b834b008d06e900edff3a0084827200fc
:1031600086827200f707b200878272000100320087
:10317000150020001e0490003e0b90000603540032
:10318000e63fb0000368a300070032000000a7007c
:103190000500a0008301d1000281d3008180d3000b
:1031a0000080d3000603e8008301d1000281d30030
:1031b0008180d3000080d3000002eb000482d200a3
:1031c0002100070003f0a1000cf0a70003f0a0000d
:1031d0005d003700640247006408e10057003200d8
:1031e0003400be003401be00f6ff37006108e10084
:1031f000520032006011b8006000b800f1ff3700e3
:1032000003ff270002002000fbff3700839f6800b8
:103210000100e00002003d0060001000e0801800a6
:103220000300e00002003d0060011100e081190090
:1032300046f707004f00e00002003b00600010006e
:10324000e080180000000600180020005700200051
:10325000080453000d003d000600200097fc2f00dd
:103260000740e1001e0034008482720061026000a9
:103270008301d1000281d3008180d3000080d3007c
:103280000804e800f8ff3a004700200061046000ed
:1032900005047400040464000d0032006100400065
:1032a000e080480060014900e081490003b8a500c2
:1032b000070032000603e8006538e10004003a0028
:1032c0008301d1000281d3008180d3000080d3002c
:1032d000f87f20000830e100030035000803780083
:1032e0006000b8006011b8004433dd00f300b200a4
:1032f0008301730000000600680447000294be00ca
:103300000094be00fc0447008694be008494be0076
:1033100009007800a501070008007800a301070054
:1033200099007800814f70000b003b000800be0040
:103330007e0107004f00b10003003700f3ff2700b4
:10334000f2ff2f006110b9004f06be004f05be000e
:103350004f04be000080fa000000060081037800e0
:1033600082f707000001be006000b8000478a300e7
:1033700013003a006220e10015003e000d00390004
:103380008301d1000281d3008180d3008301d10069
:103390000281d3008180d3008301d1000281d30058
:1033a0008180d3000538b000c42add00f300b200ec
:1033b0008381720007f0a70003f0a0000000060060
:1033c000f3ff2700f2ff2f006110b900fbff370069
:1033d00003ff2700f7ff37001400fa00889fbe00a4
:1033e0008a9fbe008c9fbe000004be000205be0086
:1033f000680047000a90be000890be006b010700fd
:103400000070a7000bf0a100304320009e02900046
:1034100080825200b0fe2f000028e10011003d0024
:10342000b0fc2f000028e100150034001e099000b8
:103430008e0890007e0090000501b0000201d100ce
:103440008180d3000080d3008502e800fbff3a00b2
:103450000b00e000bcff3b0060001000e0801800a3
:10346000b9ff3700f0ff2f00f1ff27000b00e0004d
:10347000b5ff3b000100280000002000b2ff37002c
:103480006000b800b0ff37004f89de00820178008d
:103490006d013700000000002800fa00889fbe0080
:1034a0008a9fbe008c9fbe0003866b0092ff0700c0
:1034b0000028a30064003a000128a30067003a0036
:1034c0000008a30062003a000108a30065003a006a
:1034d0001e009000be08900081064000ed3fb10044
:1034e000f4805700ee019000111ab8008e09900088
:1034f000311bb8009e099000311cb800511db80066
:10350000f485570046000700fe0190003a000700ce
:103510008b85e8003e0007008e0990004000070000
:10352000ee019000340007008b85e80038000700aa
:103530008e099000400007009e0990001b18b800fb
:10354000890440000a854800fe019000340007000d
:103550008b85e80038000700ee019000300007007e
:103560008e0990001b18b800890440000a854800a5
:103570000a98a30008003a000402420085824a002b
:1035800006034b0087834b0008044c0089844c00e1
:103590000a054d008d06e9008482720085027300e1
:1035a0004c3add0085027200010032001500200057
:1035b000443ade001400b2004538de00cb45dd00a1
:1035c0000b007000c540de00cb4ddd008b8070002d
:1035d0004549de00cb55dd000b017100c551de0011
:1035e0000d03780018ff070003f0a1000cf0a700fe
:1035f00003f0a00054ff37001b18b80085024000fc
:1036000006834800e0834b0060044c00070037004d
:103610001b18b8000603400087834800faff3700f4
:103620001b18b8008703400008844800e0844c0061
:1036300060054d00000006001b18b800080440009b
:1036400089844800faff37000108a3003bff3a00d5
:103650005800be005801be00e3ff37000008a30079
:1036600036ff3a0009047800f9ff37000000000037
:1036700007f0a20006003700020ab900001bb900db
:103680000200b800810042008100430000000600f3
:103690002800fa00889fbe008a9fbe008c9fbe0053
:1036a00007067800878669000c003b000304780059
:1036b0008704780008f0a10009f0a100840f5000f1
:1036c000858f5800860f5900890f5c000300330076
:1036d0000cf0a20001003a000cf0a10006ff070068
:1036e0006400e1005f003200780147006408e100f7
:1036f000610032006c014700748557003200be0043
:103700001201be003a04be001a05be001e0390005e
:10371000be0a90008503530006003d000004fd0032
:103720008104fd000205fd008305fd008703ea001a
:10373000050378000df8a3000400320060041400b3
:10374000e0841c0060051d00e0851d006022b800bb
:103750007d0320000d38e1008006eb000b003900ee
:103760004433dd00f300b2008301730039003700f9
:10377000848272000d027800e10664008b85d1001e
:103780000a85d3008984d3000884d3008703e90025
:10379000f7ff3b0008004000898048000a0149000b
:1037a0008b81490004003b0060001000e08018009d
:1037b00060011900e08119000358a30009003200dc
:1037c0008d82720084827200610260008301d100e8
:1037d0000281d3008180d3000080d3000603e8007b
:1037e0001b0037000348a30017003a000600e00062
:1037f000170034000603e9000d00a3000000480094
:103800008180480002014900838149000348a300e8
:103810000f003a000600e000090034000603e9004a
:103820000000400081804800020149008381490076
:1038300001003a000003eb000348a300f5ff32004b
:103840006022b80002003700848272006182660044
:103850007dfe070003f0a1000cf0a70003f0a0001c
:10386000b9fe3700640147006408e10002003a0035
:103870000df8a300b1fe3a003200be001201be00f6
:10388000b1fe370000000000889fbe008a9fbe0086
:103890008c9fbe000404be000605be00809fbe00d3
:1038a000829fbe002f000700040678000800be00bb
:1038b0000a01be002b000700840678004f03be00fb
:1038c0004f02be008d4f76007fb09700130033008b
:1038d000f0ff2f008b8f6b0006003b000d0666008b
:1038e0000c00a7000a00370007f0a6001000200017
:1038f0000a003700880f5200898f5a008a0f5b0038
:103900008b8f5b00030039001000200001003e0097
:103910000000200007f0a7000000ea004f06be00ec
:103920004f05be004f04be0000000600e4824000c8
:103930001078a30007003200640240001178a30051
:103940003400be001401be00040032000330a700a2
:10395000000006003500be001501be000330a000c7
:103960000000060005ff2700058261000700320005
:103970000428e100010032002400050006000700d1
:1039800001003a0044000500040805000200070099
:10399000f9ff3a00140005006f8261008102700097
:1039a0008502710085027200000006008000780028
:1039b0005002be005003be004439de00f700b200e2
:1039c000f37f200003016100090032000218e100ca
:1039d00016003a0085017200830173008381730031
:1039e0000008200015003a004000200013003700b6
:1039f00085017200830173008381730005003a0022
:103a000004a8be0006a8be00100020000b0037006e
:103a10000201e9000402420085824a0006034b00cd
:103a200087834b000748a300f9ff32000740a0003e
:103a300004a8be0006a8be00200020008000980058
:103a40009200980000000600881f780003047800a8
:103a50000300e00007003d0060001000e080180057
:103a600060011900e081190002003b0001f02d0007
:103a7000030037000400070008f0a70003f0a000cf
:103a80004f04780000000600889fbe00008270008e
:103a900004027100048271002400320036432000c9
:103aa000c50020008383cf000a0039000541b10022
:103ab0008283cf00070039000541b1008183cf0028
:103ac000040039000541b1008083cf0001003900b6
:103ad0000541b10085c353006022b80012003200d6
:103ae0000a003b0084827200610260008301d10001
:103af0000281d3008180d3000080d3000603e80058
:103b00008743e800f7ff3a00070037000000400055
:103b10008180480002014900838149000603e900d1
:103b20008743e900f9ff3a00c7fd07004f04be00d4
:043b3000000006008b
:020000040000fa
:103b3400c7000000fc000000e9000000e2000000f3
:103b4400e4000000e0000000e5000000e7000000e1
:103b5400ea000000eb000000e8000000ef000000b5
:103b6400ee000000ec000000c4000000c5000000ee
:103b7400c9000000e6000000c6000000f4000000d8
:103b8400f6000000f2000000fb000000f900000055
:103b9400ff000000d6000000dc000000a2000000ce
:103ba400a3000000a5000000a7200000920100006f
:103bb400e1000000ed000000f3000000fa00000046
:103bc400f1000000d1000000aa000000ba000000cb
:103bd400bf00000010230000ac000000bd00000086
:103be400bc000000a1000000ab000000bb0000000e
:103bf4009125000092250000932500000225000075
:103c040024250000612500006225000056250000df
:103c140055250000632500005125000057250000ac
:103c24005d2500005c2500005b25000010250000d8
:103c340014250000342500002c2500001c2500005c
:103c4400002500003c2500005e2500005f250000e3
:103c54005a2500005425000069250000662500004f
:103c640060250000502500006c2500006725000039
:103c74006825000064250000652500005925000022
:103c84005825000052250000532500006b25000034
:103c94006a250000182500000c2500008825000076
:103ca400842500008c25000090250000802500005c
:103cb400b1030000df00000093030000c003000014
:103cc400a3030000c3030000b5000000c403000008
:103cd400a603000098030000a9030000b403000039
:103ce4001e220000c6030000b503000029220000c4
:103cf40061220000b100000065220000642200007f
:103d04002023000021230000f700000048220000c7
:103d1400b000000019220000b70000001a220000c1
:103d24007f200000b2000000a0250000a0000000d9
:103d3400610000001a030000e00000001703000007
:103d4400f800000007030000ff000000010000006d
:103d54007801000000010000300100003201000081
:103d64000601000039010000100100004a010000b2
:103d74002e0100007901000006010000800100000e
:103d84004d00000043020000810100008201000098
:103d9400820100008401000084010000860100000b
:103da4008701000087010000890100008a010000ea
:103db4008b0100008b0100008d0100008e010000ca
:103dc4008f010000900100009101000091010000aa
:103dd4009301000094010000f60100009601000028
:103de4009701000098010000980100003d020000c6
:103df4009b0100009c0100009d01000020020000c6
:103e04009f010000a0010000a0010000a201000029
:103e1400a2010000a4010000a4010000a60100000a
:103e2400a7010000a7010000a9010000aa010000e9
:103e3400ab010000ac010000ac010000ae010000c9
:103e4400af010000af010000b1010000b2010000a9
:103e5400b3010000b3010000b5010000b50100008a
:103e6400b7010000b8010000b8010000ba01000069
:103e7400bb010000bc010000bc010000be01000049
:103e8400f7010000c0010000c1010000c2010000f0
:103e9400c3010000c4010000c5010000c40100000a
:103ea400c7010000c8010000c7010000ca010000ea
:103eb400cb010000ca010000cd0100001001000088
:103ec400dd010000010000008e010000de010000a1
:103ed40012010000f301000003000000f1010000e2
:103ee400f4010000f4010000f801000028010000c2
:103ef40022020000120100003a0200000900000042
:103f0400652c00003b0200003b0200003d02000063
:103f1400662c00003f020000400200004102000045
:103f240041020000460200000a01000053020000a2
:103f340040000000810100008601000055020000dd
:103f4400890100008a010000580200008f0100006e
:103f54005a020000900100005c0200005d020000b3
:103f64005e0200005f020000930100006102000095
:103f74006202000094010000640200006502000077
:103f8400660200006702000097010000960100002d
:103f94006a020000622c00006c0200006d02000046
:103fa4006e0200009c01000070020000710200001b
:103fb4009d01000073020000740200009f010000d4
:103fc4007602000077020000780200007902000007
:103fd4007a0200007b0200007c020000642c0000d6
:103fe4007e0200007f020000a601000081020000a2
:103ff40082020000a9010000840200008502000082
:104004008602000087020000ae01000044020000a6
:10401400b1010000b2010000450200008d02000061
:104024008e0200008f020000900200009102000046
:10403400b70100007b03000003000000fd03000043
:10404400fe030000ff030000ac03000004000000b6
:104054008603000088030000890300008a0300002f
:10406400b103000011030000c203000002000000bd
:10407400a3030000a3030000c4030000080300001e
:10408400cc030000030000008c0300008e0300003a
:104094008f030000d803000018010000f2030000a1
:1040a4000a000000f9030000f3030000f403000019
:1040b400f5030000f6030000f7030000f703000017
:1040c400f9030000fa030000fa03000030040000c2
:1040d40020030000500400001007000060040000ea
:1040e400220100008a04000036010000c10400001f
:1040f4000e010000cf04000001000000c004000015
:10410400d004000044010000610500002604000002
:10411400000000007d1d000001000000632c000071
:10412400001e000096010000a01e00005a010000bd
:10413400001f000008060000101f00000606000013
:10414400201f000008060000301f000008060000c1
:10415400401f000006060000511f00000700000079
:10416400591f0000521f00005b1f0000541f000075
:104174005d1f0000561f00005f1f0000601f00004d
:1041840008060000701f00000e000000ba1f0000a7
:10419400bb1f0000c81f0000c91f0000ca1f000089
:1041a400cb1f0000da1f0000db1f0000f81f000017
:1041b400f91f0000ea1f0000eb1f0000fa1f0000b7
:1041c400fb1f0000801f000008060000901f000075
:1041d40008060000a01f000008060000b01f000031
:1041e40004000000b81f0000b91f0000b21f000047
:1041f400bc1f0000cc1f000001000000c31f000012
:10420400d01f000002060000e01f000002060000ac
:10421400e51f000001000000ec1f0000f31f000078
:1042240001000000fc1f00004e21000001000000fe
:1042340032210000702100001002000084210000df
:104244000100000083210000d02400001a050000b2
:10425400302c00002f040000602c0000020100003c
:10426400672c000006010000752c0000020100000c
:10427400802c000064010000002d000026080000ce
:1042840041ff00001a0300000000000001030000c9
:1042940005070000090e00001012000014160000ab
:1042a400181c00001e8000009a450000418e00008a
:1042b400418f000080450000454500004949000049
:1042c400498e00008f900000929200004f990000e8
:1042d4004f55000055590000999a00009b9c00001e
:1042e4009d9e00009f410000494f000055a500001d
:1042f400a5a60000a7a80000a9aa0000abac000076
:10430400adae0000afb00000b1b20000b3b4000025
:10431400b5b60000b7b80000b9ba0000bbbc0000d5
:10432400bdbe0000bfc00000c1c20000c3c4000085
:10433400c5c60000c7c80000c9ca0000cbcc000035
:10434400cdce0000cfd00000d1d20000d3d40000e5
:10435400d5d60000d7d80000d9da0000dbdc000095
:10436400ddde0000dfe00000e1e20000e3e4000045
:10437400e5e60000e7e80000e9ea0000ebec0000f5
:10438400edee0000eff00000f1f20000f3f40000a5
:10439400f5f60000f7f80000f9fa0000fbfc000055
:1043a400fdfe0000ff2200002a3a00003c3e00000f
:1043b4003f7c00007f0000002b2c00003b3d0000f0
:1043c4005b5d000000460000415400000046000010
:1043d40041540000333200000000000000000000df
:1043e4009500000000000000000000000100000033
:1043f400f9000000000000000000000008000000b8
:104404008700000004000000000000000900000014
:10441400af00000000000000010000000a000000de
:104424001b00000000000000010000000c00000060
:10443400c300000001000000000000000d000000a7
:10444400af000000020000000000000010000000a7
:10445400ff00000000000000000000001100000048
:10446400ff00000000000000010000001200000036
:10447400ff00000000000000010000001800000020
:10448400ff0000000000000001000000190000000f
:10449400ff000000000000000100000020000000f8
:1044a400ff000000000000000000000021000000e8
:1044b400ff000000000000000000000026000000d3
:1044c400df000000010000000000000037000000d1
:1044d4007300000000000000000000003a0000002b
:1044e4002500000004000000000000003b00000064
:1044f400250000000000000000000000290000006a
:10450400ff0000000400000000000000170000008d
:10451400ff000000000000000000000053530000f2
:104524004c69000064610000722000004d4b0000e3
:10453400312000004c6f00006764000061740000cb
:10454400656900002e540000585400000054000017
:104554006f4600003a0d00000a20000020200000f1
:1045640030b000003d200000252e00003066000021
:104574006d6d00000d0a000020200000343500009d
:10458400b03d0000202500002e300000666d0000c4
:104594006d0d00000a2000002039000030b000003a
:1045a4003d200000252e0000306600006d6d0000e7
:1045b4000d0a00002031000033350000b03d00003a
:1045c400202500002e300000666d00006d0d0000f7
:1045d4000a2000003138000030b000003d20000007
:1045e400252e0000306600006d6d00000d0a0000ed
:1045f4002032000032350000b03d000020250000cc
:104604002e300000666d00006d0d00000a200000d1
:104614003237000030b000003d200000252e00009d
:10462400306600006d6d00000d0a000020330000ac
:1046340031350000b03d0000202500002e30000080
:10464400666d00006d0d00000a000000303a0000a5
:104654000000000020570000303d00002020000032
:10466400202500002e300000666d00006d0d000056
:104674000a20000057340000353d000020200000cf
:10468400252e0000306600006d6d00000d0a00004c
:1046940020570000393000003d2000002025000094
:1046a4002e300000666d00006d0d00000a20000031
:1046b40057310000333500003d200000252e000056
:1046c400306600006d6d00000d0a000020570000e8
:1046d40031380000303d0000202500002e3000005d
:1046e400666d00006d0d00000a20000057320000c6
:1046f400323500003d200000252e00003066000009
:104704006d6d00000d0a00002057000032370000d4
:10471400303d0000202500002e300000666d0000b2
:104724006d0d00000a2000005733000031350000f1
:104734003d200000252e0000306600006d6d000055
:104744000d0a00000d0a000000000000cea80000c1
:1047540022ae00002ca9000046a9000078a90000a0
:10476400a6a90000d6a90000e2a9000008aa00003a
:10477400eca90000cea800002cae00002ca900007b
:1047840046a9000078a90000a6a90000d6a9000047
:10479400e2a9000008aa0000eca90000303a0000d9
:1047a40000480000454c00004c4f00002e5400000f
:1047b4005854000000480000656c00006c6f000055
:1047c400205700006f7200006c640000210000009c
:1047d4006000000000000000000000006000000015
:1047e4001300000000000000200100003f00000052
:0447f40000000000c1
:020000040000fa
:1047f8000000fa0090c2b3007ee8b70060492100cb
:1048080091c8b300014878007ec8bf000080fb0053
:10481800c38720000001780011c0b300604921005f
:104828002a400700ca3f07007ec8bf000080fb007f
:10483800c38720000001780011c0b300904921000f
:104848003b400700c23f07006049210091c8b30000
:10485800014878007049210011c0b3000148780070
:104868007ec8bf000080fb00c387200000017800dd
:1048780021c0b3006049210014400700b43f07007d
:104888006049210081c8b3000148780070492100bf
:104898008040eb00014878007ec8bf000080fb0024
:1048a800c38720000001780021c0b30060492100bf
:1048b80006400700a63f07006049210001ccb3006d
:1048c800014878007ec8bf000080fb00c387200035
:1048d8000001780011c0b30060492100fb3f0700c8
:1048e8009b3f07007ec8bf000080fb00c3872000f5
:1048f8000001780011c0b300904921000c40070066
:10490800933f07006049210081cfb3000148780038
:104918007ec8bf000080fb00c3872000000178002c
:1049280011c0b30060492100e83f0700883f070035
:104938007ec8bf000080fb00c3872000000178000c
:1049480021c0b30090492100f93f0700803f0700cc
:104958006049210041c0b300014878007ec8bf000b
:104968000080fb00c38720000001780011c0b3005d
:1049780060492100d53f0700753f07007ec8bf008a
:104988000080fb00c38720000001780041c0b3000d
:1049980090492100e63f07006d3f0700604921006c
:1049a80001c2b300014878007ec8bf000080fb0048
:1049b800c38720000001780011c0b30060492100be
:1049c800c23f0700623f07007ec8bf000080fb00af
:1049d800c38720000001780021c0b300904921005e
:1049e800d33f07005a3f07006049210081c2b30046
:1049f800014878007ec8bf000080fb00c387200004
:104a08000001780011c0b30060492100af3f0700e2
:104a18004f3f07007ec8bf000080fb00c38720000f
:104a28000001780021c0b30090492100c03f070071
:104a3800473f07006049210041c4b300014878009e
:104a48007ec8bf000080fb00c387200000017800fb
:104a580011c0b300604921009c3f07003c3f07009c
:104a68007ec8bf000080fb00c387200000017800db
:104a780021c0b30090492100ad3f0700343f070033
:104a88006049210041c6b300014878007ec8bf00d4
:104a98000080fb00c38720000001780011c0b3002c
:104aa80060492100893f0700293f07007ec8bf00f1
:104ab8000080fb00c38720000001780021c0b300fc
:104ac800904921009a3f0700213f070060492100d3
:104ad80041c6b300014878007ec8bf000080fb00d3
:104ae800c38720000001780011c0b300604921008d
:104af800763f0700163f07007ec8bf000080fb0016
:104b0800c38720000001780021c0b300904921002c
:104b1800873f07000e3f07006049210011c0b3001e
:104b2800014878007ec8bf000080fb00c3872000d2
:104b38000001780011c0b30060492100633f0700fd
:104b4800033f07007ec8bf000080fb00c38720002a
:104b58000001780011c0b30090492100743f07009c
:104b6800fb3e07006049210011c0b30001487800ee
:104b78007ec8bf000080fb00c387200000017800ca
:104b880011c0b30060492100503f0700f03e070004
:104b98007ec8bf000080fb00c387200000017800aa
:104ba80011c0b30090492100613f0700e83e0700ab
:104bb8006049210001c5b300014878007ec8bf00e4
:104bc8000080fb00c38720000001780011c0b300fb
:104bd800604921003d3f0700dd3e07007ec8bf0059
:104be8000080fb00c38720000001780011c0b300db
:104bf800904921004e3f0700d53e0700604921003b
:104c080061c4b300014878007ec8bf000080fb0083
:104c1800c38720000001780011c0b300604921005b
:104c28002a3f0700ca3e07007ec8bf000080fb007d
:104c3800c38720000001780011c0b300904921000b
:104c48003b3f0700c23e07006049210001c5b30091
:104c5800014878007ec8bf000080fb00c3872000a1
:104c68000001780011c0b30060492100173f070018
:104c7800b73e07007ec8bf000080fb00c387200046
:104c88000001780011c0b30090492100283f0700b7
:104c9800af3e07006049210001c5b3000148780014
:104ca8007ec8bf000080fb00c38720000001780099
:104cb80011c0b30060492100043f0700a43e07006b
:104cc8007ec8bf000080fb00c38720000001780079
:104cd80011c0b30090492100153f07009c3e070012
:104ce8006049210011c5b300014878007ec8bf00a3
:104cf8000080fb00c38720000001780011c0b300ca
:104d080060492100f13e0700913e07007ec8bf00c0
:104d18000080fb00c38720000001780021c0b30099
:104d280090492100023f0700893e070060492100a1
:104d380011c0b300014878007ec8bf000080fb00a6
:104d4800c38720000001780011c0b300604921002a
:104d5800de3e07007e3e07007ec8bf000080fb00e5
:104d6800c38720000001780011c0b30090492100da
:104d7800ef3e0700763e07006049210001c5b300f9
:104d8800014878007ec8bf000080fb00c387200070
:104d98000001780011c0b30060492100cb3e070034
:104da8006b3e07007ec8bf000080fb00c387200061
:104db8000001780011c0b30090492100dc3e0700d3
:104dc800633e07006049210011c5b300014878001f
:104dd8007ec8bf000080fb00c38720000001780068
:104de80011c0b30060492100b83e0700583e0700d3
:104df8007ec8bf000080fb00c38720000001780048
:104e080021c0b30090492100c93e0700503e070069
:104e18006049210001c7b300014878007ec8bf007f
:104e28000080fb00c38720000001780011c0b30098
:104e380060492100a53e0700453e07007ec8bf0027
:104e48000080fb00c38720000001780011c0b30078
:104e580090492100b63e07003d3e07006049210009
:104e680011c7b300014878007ec8bf000080fb006e
:104e7800c38720000001780011c0b30060492100f9
:104e8800923e0700323e07007ec8bf000080fb004c
:104e9800c38720000001780021c0b3009049210099
:104ea800a33e07002a3e07006049210001c8b3005d
:104eb800014878007049210011c0b300014878000a
:104ec8007ec8bf000080fb00c38720000001780077
:104ed80021c0b300604921007c3e07001c3e07004a
:104ee8006049210080c0eb0001487800704921002a
:104ef80011c0b300014878007ec8bf000080fb00e5
:104f0800c38720000001780021c0b3006049210058
:104f18006e3e07000e3e0700604921008040eb000e
:104f280001487800704921008040eb000148780072
:104f38007ec8bf000080fb00c38720000001780006
:104f480021c0b30060492100603e0700003e070011
:104f58006049210011c9b300014878007ec8bf002c
:104f68000080fb00c38720000001780011c0b30057
:104f780060492100553e0700f53d07007ec8bf0087
:104f88000080fb00c38720000001780011c0b30037
:104f980090492100663e0700ed3d07006049210069
:104fa8008040eb00014878007049210011c0b3002f
:104fb800014878007ec8bf000080fb00c38720003e
:104fc8000001780021c0b300604921003f3e07007e
:104fd800df3d07006049210080c0eb0001487800f0
:104fe800704921008040eb00014878007ec8bf006e
:104ff8000080fb00c38720000001780021c0b300b7
:1050080060492100313e0700d13d07006049210079
:1050180001c8b30001487800704921008040eb00c6
:10502800014878007ec8bf000080fb00c3872000cd
:105038000001780021c0b30060492100233e070029
:10504800c33d07006049210041c4b300014878000e
:10505800704921008040eb00014878008049210018
:1050680001c2b300014878007ec8bf000080fb0081
:10507800c38720000001780031c0b30060492100d7
:10508800123e0700b23d07006049210001c6b30087
:10509800014878007ec8bf000080fb00c38720005d
:1050a8000001780011c0b30060492100073e0700e5
:1050b800a73d07007ec8bf000080fb00c387200013
:1050c8000001780011c0b30090492100183e070084
:1050d8009f3d07006049210001c6b30001487800e0
:1050e800704921008040eb00014878007ec8bf006d
:1050f8000080fb00c38720000001780021c0b300b6
:1051080060492100f13d0700913d070060492100f9
:1051180001c6b300014878007ec8bf000080fb00cc
:10512800c38720000001780011c0b3006049210046
:10513800e63d0700863d07007ec8bf000080fb00f3
:10514800c38720000001780011c0b30090492100f6
:10515800f73d07007e3d07006049210001c6b30006
:1051680001487800704921008040eb000148780030
:105178007ec8bf000080fb00c387200000017800c4
:1051880021c0b30060492100d03d0700703d0700f1
:105198006049210001c6b300014878007ec8bf00fd
:1051a8000080fb00c38720000001780011c0b30015
:1051b80060492100c53d0700653d07007ec8bf0066
:1051c8000080fb00c38720000001780011c0b300f5
